{
  "_format": "hh-sol-artifact-1",
  "contractName": "MementoProofRegistry",
  "sourceName": "contracts/MementoProofRegistry.sol",
  "abi": [
    {
      "inputs": [],
      "name": "InvalidHash",
      "type": "error"
    },
    {
      "inputs": [],
      "name": "ProofAlreadyExists",
      "type": "error"
    },
    {
      "inputs": [],
      "name": "ProofNotFound",
      "type": "error"
    },
    {
      "anonymous": false,
      "inputs": [
        {
          "indexed": true,
          "internalType": "bytes32",
          "name": "fileHash",
          "type": "bytes32"
        },
        {
          "indexed": true,
          "internalType": "address",
          "name": "creator",
          "type": "address"
        },
        {
          "indexed": false,
          "internalType": "uint64",
          "name": "timestamp",
          "type": "uint64"
        },
        {
          "indexed": false,
          "internalType": "bytes32",
          "name": "metadataHash",
          "type": "bytes32"
        }
      ],
      "name": "ProofCreated",
      "type": "event"
    },
    {
      "inputs": [
        {
          "internalType": "bytes32",
          "name": "fileHash",
          "type": "bytes32"
        },
        {
          "internalType": "bytes32",
          "name": "metadataHash",
          "type": "bytes32"
        }
      ],
      "name": "createProof",
      "outputs": [],
      "stateMutability": "nonpayable",
      "type": "function"
    },
    {
      "inputs": [
        {
          "internalType": "address",
          "name": "",
          "type": "address"
        }
      ],
      "name": "creatorProofCount",
      "outputs": [
        {
          "internalType": "uint256",
          "name": "",
          "type": "uint256"
        }
      ],
      "stateMutability": "view",
      "type": "function"
    },
    {
      "inputs": [
        {
          "internalType": "bytes32",
          "name": "fileHash",
          "type": "bytes32"
        }
      ],
      "name": "getBasicProof",
      "outputs": [
        {
          "internalType": "address",
          "name": "creator",
          "type": "address"
        },
        {
          "internalType": "uint64",
          "name": "timestamp",
          "type": "uint64"
        }
      ],
      "stateMutability": "view",
      "type": "function"
    },
    {
      "inputs": [
        {
          "internalType": "bytes32",
          "name": "fileHash",
          "type": "bytes32"
        }
      ],
      "name": "getProof",
      "outputs": [
        {
          "components": [
            {
              "internalType": "address",
              "name": "creator",
              "type": "address"
            },
            {
              "internalType": "uint64",
              "name": "timestamp",
              "type": "uint64"
            },
            {
              "internalType": "bytes32",
              "name": "metadataHash",
              "type": "bytes32"
            }
          ],
          "internalType": "struct MementoProofRegistry.Proof",
          "name": "",
          "type": "tuple"
        }
      ],
      "stateMutability": "view",
      "type": "function"
    },
    {
      "inputs": [
        {
          "internalType": "bytes32",
          "name": "fileHash",
          "type": "bytes32"
        }
      ],
      "name": "proofExists",
      "outputs": [
        {
          "internalType": "bool",
          "name": "",
          "type": "bool"
        }
      ],
      "stateMutability": "view",
      "type": "function"
    }
  ],
  "bytecode": "0x608060405234801561001057600080fd5b5061042a806100206000396000f3fe608060405234801561001057600080fd5b50600436106100575760003560e01c80631b80bb3a1461005c57806321c2bcac146100a9578063bc26ecfe146100e4578063bfa8ad3614610112578063d938d20214610127575b600080fd5b61006f61006a366004610389565b61016a565b6040805182516001600160a01b0316815260208084015167ffffffffffffffff169082015291810151908201526060015b60405180910390f35b6100bc6100b7366004610389565b6101f5565b604080516001600160a01b03909316835267ffffffffffffffff9091166020830152016100a0565b6101046100f23660046103a2565b60016020526000908152604090205481565b6040519081526020016100a0565b6101256101203660046103d2565b610271565b005b61015a610135366004610389565b600090815260208190526040902054600160a01b900467ffffffffffffffff16151590565b60405190151581526020016100a0565b6040805160608101825260008082526020820181905291810191909152600082815260208181526040808320815160608101835281546001600160a01b0381168252600160a01b900467ffffffffffffffff169381018490526001909101549181019190915291036101ef576040516336131e5760e01b815260040160405180910390fd5b92915050565b600081815260208181526040808320815160608101835281546001600160a01b0381168252600160a01b900467ffffffffffffffff16938101849052600190910154918101919091528291820361025f576040516336131e5760e01b815260040160405180910390fd5b80516020909101519094909350915050565b8161028e576040516257c03760e51b815260040160405180910390fd5b600082815260208190526040902054600160a01b900467ffffffffffffffff16156102cc5760405163b8cdb9bd60e01b815260040160405180910390fd5b604080516060810182523380825267ffffffffffffffff42818116602080860182815286880189815260008b8152808452898120985189549351909716600160a01b026001600160e01b03199093166001600160a01b039097169690961791909117875551600196870155848452858152928690208054909501909455845193845290830185905292909185917f5209fdec76706da480567430dcfe92d145394c370c55d1d6affbef8d83440963910160405180910390a3505050565b60006020828403121561039b57600080fd5b5035919050565b6000602082840312156103b457600080fd5b81356001600160a01b03811681146103cb57600080fd5b9392505050565b600080604083850312156103e557600080fd5b5050803592602090910135915056fea26469706673582212200e7e15015019bff73068bb544f1297e36e91d9b8eb3aa6f6ace5cb8298986dff64736f6c63430008140033",
  "linkReferences": {},
  "deployedLinkReferences": {}
}