{"contracts/MementoProofRegistry.sol":{"MementoProofRegistry":{"abi":[{"inputs":[],"name":"InvalidHash","type":"error"},{"inputs":[],"name":"ProofAlreadyExists","type":"error"},{"inputs":[],"name":"ProofNotFound","type":"error"},{"anonymous":false,"inputs":[{"indexed":true,"internalType":"bytes32","name":"fileHash","type":"bytes32"},{"indexed":true,"internalType":"address","name":"creator","type":"address"},{"indexed":false,"internalType":"uint64","name":"timestamp","type":"uint64"},{"indexed":false,"internalType":"bytes32","name":"metadataHash","type":"bytes32"}],"name":"ProofCreated","type":"event"},{"inputs":[{"internalType":"bytes32","name":"fileHash","type":"bytes32"},{"internalType":"bytes32","name":"metadataHash","type":"bytes32"}],"name":"createProof","outputs":[],"stateMutability":"nonpayable","type":"function"},{"inputs":[{"internalType":"address","name":"","type":"address"}],"name":"creatorProofCount","outputs":[{"internalType":"uint256","name":"","type":"uint256"}],"stateMutability":"view","type":"function"},{"inputs":[{"internalType":"bytes32","name":"fileHash","type":"bytes32"}],"name":"getBasicProof","outputs":[{"internalType":"address","name":"creator","type":"address"},{"internalType":"uint64","name":"timestamp","type":"uint64"}],"stateMutability":"view","type":"function"},{"inputs":[{"internalType":"bytes32","name":"fileHash","type":"bytes32"}],"name":"getProof","outputs":[{"components":[{"internalType":"address","name":"creator","type":"address"},{"internalType":"uint64","name":"timestamp","type":"uint64"},{"internalType":"bytes32","name":"metadataHash","type":"bytes32"}],"internalType":"struct MementoProofRegistry.Proof","name":"","type":"tuple"}],"stateMutability":"view","type":"function"},{"inputs":[{"internalType":"bytes32","name":"fileHash","type":"bytes32"}],"name":"proofExists","outputs":[{"internalType":"bool","name":"","type":"bool"}],"stateMutability":"view","type":"function"}],"evm":{"bytecode":{"linkReferences":{},"object":"608060405234801561001057600080fd5b5061042a806100206000396000f3fe608060405234801561001057600080fd5b50600436106100575760003560e01c80631b80bb3a1461005c57806321c2bcac146100a9578063bc26ecfe146100e4578063bfa8ad3614610112578063d938d20214610127575b600080fd5b61006f61006a366004610389565b61016a565b6040805182516001600160a01b0316815260208084015167ffffffffffffffff169082015291810151908201526060015b60405180910390f35b6100bc6100b7366004610389565b6101f5565b604080516001600160a01b03909316835267ffffffffffffffff9091166020830152016100a0565b6101046100f23660046103a2565b60016020526000908152604090205481565b6040519081526020016100a0565b6101256101203660046103d2565b610271565b005b61015a610135366004610389565b600090815260208190526040902054600160a01b900467ffffffffffffffff16151590565b60405190151581526020016100a0565b6040805160608101825260008082526020820181905291810191909152600082815260208181526040808320815160608101835281546001600160a01b0381168252600160a01b900467ffffffffffffffff169381018490526001909101549181019190915291036101ef576040516336131e5760e01b815260040160405180910390fd5b92915050565b600081815260208181526040808320815160608101835281546001600160a01b0381168252600160a01b900467ffffffffffffffff16938101849052600190910154918101919091528291820361025f576040516336131e5760e01b815260040160405180910390fd5b80516020909101519094909350915050565b8161028e576040516257c03760e51b815260040160405180910390fd5b600082815260208190526040902054600160a01b900467ffffffffffffffff16156102cc5760405163b8cdb9bd60e01b815260040160405180910390fd5b604080516060810182523380825267ffffffffffffffff42818116602080860182815286880189815260008b8152808452898120985189549351909716600160a01b026001600160e01b03199093166001600160a01b039097169690961791909117875551600196870155848452858152928690208054909501909455845193845290830185905292909185917f5209fdec76706da480567430dcfe92d145394c370c55d1d6affbef8d83440963910160405180910390a3505050565b60006020828403121561039b57600080fd5b5035919050565b6000602082840312156103b457600080fd5b81356001600160a01b03811681146103cb57600080fd5b9392505050565b600080604083850312156103e557600080fd5b5050803592602090910135915056fea26469706673582212200e7e15015019bff73068bb544f1297e36e91d9b8eb3aa6f6ace5cb8298986dff64736f6c63430008140033","opcodes":"PUSH1 0x80 PUSH1 0x40 MSTORE CALLVALUE DUP1 ISZERO PUSH2 0x10 JUMPI PUSH1 0x0 DUP1 REVERT JUMPDEST POP PUSH2 0x42A DUP1 PUSH2 0x20 PUSH1 0x0 CODECOPY PUSH1 0x0 RETURN INVALID PUSH1 0x80 PUSH1 0x40 MSTORE CALLVALUE DUP1 ISZERO PUSH2 0x10 JUMPI PUSH1 0x0 DUP1 REVERT JUMPDEST POP PUSH1 0x4 CALLDATASIZE LT PUSH2 0x57 JUMPI PUSH1 0x0 CALLDATALOAD PUSH1 0xE0 SHR DUP1 PUSH4 0x1B80BB3A EQ PUSH2 0x5C JUMPI DUP1 PUSH4 0x21C2BCAC EQ PUSH2 0xA9 JUMPI DUP1 PUSH4 0xBC26ECFE EQ PUSH2 0xE4 JUMPI DUP1 PUSH4 0xBFA8AD36 EQ PUSH2 0x112 JUMPI DUP1 PUSH4 0xD938D202 EQ PUSH2 0x127 JUMPI JUMPDEST PUSH1 0x0 DUP1 REVERT JUMPDEST PUSH2 0x6F PUSH2 0x6A CALLDATASIZE PUSH1 0x4 PUSH2 0x389 JUMP JUMPDEST PUSH2 0x16A JUMP JUMPDEST PUSH1 0x40 DUP1 MLOAD DUP3 MLOAD PUSH1 0x1 PUSH1 0x1 PUSH1 0xA0 SHL SUB AND DUP2 MSTORE PUSH1 0x20 DUP1 DUP5 ADD MLOAD PUSH8 0xFFFFFFFFFFFFFFFF AND SWAP1 DUP3 ADD MSTORE SWAP2 DUP2 ADD MLOAD SWAP1 DUP3 ADD MSTORE PUSH1 0x60 ADD JUMPDEST PUSH1 0x40 MLOAD DUP1 SWAP2 SUB SWAP1 RETURN JUMPDEST PUSH2 0xBC PUSH2 0xB7 CALLDATASIZE PUSH1 0x4 PUSH2 0x389 JUMP JUMPDEST PUSH2 0x1F5 JUMP JUMPDEST PUSH1 0x40 DUP1 MLOAD PUSH1 0x1 PUSH1 0x1 PUSH1 0xA0 SHL SUB SWAP1 SWAP4 AND DUP4 MSTORE PUSH8 0xFFFFFFFFFFFFFFFF SWAP1 SWAP2 AND PUSH1 0x20 DUP4 ADD MSTORE ADD PUSH2 0xA0 JUMP JUMPDEST PUSH2 0x104 PUSH2 0xF2 CALLDATASIZE PUSH1 0x4 PUSH2 0x3A2 JUMP JUMPDEST PUSH1 0x1 PUSH1 0x20 MSTORE PUSH1 0x0 SWAP1 DUP2 MSTORE PUSH1 0x40 SWAP1 KECCAK256 SLOAD DUP2 JUMP JUMPDEST PUSH1 0x40 MLOAD SWAP1 DUP2 MSTORE PUSH1 0x20 ADD PUSH2 0xA0 JUMP JUMPDEST PUSH2 0x125 PUSH2 0x120 CALLDATASIZE PUSH1 0x4 PUSH2 0x3D2 JUMP JUMPDEST PUSH2 0x271 JUMP JUMPDEST STOP JUMPDEST PUSH2 0x15A PUSH2 0x135 CALLDATASIZE PUSH1 0x4 PUSH2 0x389 JUMP JUMPDEST PUSH1 0x0 SWAP1 DUP2 MSTORE PUSH1 0x20 DUP2 SWAP1 MSTORE PUSH1 0x40 SWAP1 KECCAK256 SLOAD PUSH1 0x1 PUSH1 0xA0 SHL SWAP1 DIV PUSH8 0xFFFFFFFFFFFFFFFF AND ISZERO ISZERO SWAP1 JUMP JUMPDEST PUSH1 0x40 MLOAD SWAP1 ISZERO ISZERO DUP2 MSTORE PUSH1 0x20 ADD PUSH2 0xA0 JUMP JUMPDEST PUSH1 0x40 DUP1 MLOAD PUSH1 0x60 DUP2 ADD DUP3 MSTORE PUSH1 0x0 DUP1 DUP3 MSTORE PUSH1 0x20 DUP3 ADD DUP2 SWAP1 MSTORE SWAP2 DUP2 ADD SWAP2 SWAP1 SWAP2 MSTORE PUSH1 0x0 DUP3 DUP2 MSTORE PUSH1 0x20 DUP2 DUP2 MSTORE PUSH1 0x40 DUP1 DUP4 KECCAK256 DUP2 MLOAD PUSH1 0x60 DUP2 ADD DUP4 MSTORE DUP2 SLOAD PUSH1 0x1 PUSH1 0x1 PUSH1 0xA0 SHL SUB DUP2 AND DUP3 MSTORE PUSH1 0x1 PUSH1 0xA0 SHL SWAP1 DIV PUSH8 0xFFFFFFFFFFFFFFFF AND SWAP4 DUP2 ADD DUP5 SWAP1 MSTORE PUSH1 0x1 SWAP1 SWAP2 ADD SLOAD SWAP2 DUP2 ADD SWAP2 SWAP1 SWAP2 MSTORE SWAP2 SUB PUSH2 0x1EF JUMPI PUSH1 0x40 MLOAD PUSH4 0x36131E57 PUSH1 0xE0 SHL DUP2 MSTORE PUSH1 0x4 ADD PUSH1 0x40 MLOAD DUP1 SWAP2 SUB SWAP1 REVERT JUMPDEST SWAP3 SWAP2 POP POP JUMP JUMPDEST PUSH1 0x0 DUP2 DUP2 MSTORE PUSH1 0x20 DUP2 DUP2 MSTORE PUSH1 0x40 DUP1 DUP4 KECCAK256 DUP2 MLOAD PUSH1 0x60 DUP2 ADD DUP4 MSTORE DUP2 SLOAD PUSH1 0x1 PUSH1 0x1 PUSH1 0xA0 SHL SUB DUP2 AND DUP3 MSTORE PUSH1 0x1 PUSH1 0xA0 SHL SWAP1 DIV PUSH8 0xFFFFFFFFFFFFFFFF AND SWAP4 DUP2 ADD DUP5 SWAP1 MSTORE PUSH1 0x1 SWAP1 SWAP2 ADD SLOAD SWAP2 DUP2 ADD SWAP2 SWAP1 SWAP2 MSTORE DUP3 SWAP2 DUP3 SUB PUSH2 0x25F JUMPI PUSH1 0x40 MLOAD PUSH4 0x36131E57 PUSH1 0xE0 SHL DUP2 MSTORE PUSH1 0x4 ADD PUSH1 0x40 MLOAD DUP1 SWAP2 SUB SWAP1 REVERT JUMPDEST DUP1 MLOAD PUSH1 0x20 SWAP1 SWAP2 ADD MLOAD SWAP1 SWAP5 SWAP1 SWAP4 POP SWAP2 POP POP JUMP JUMPDEST DUP2 PUSH2 0x28E JUMPI PUSH1 0x40 MLOAD PUSH3 0x57C037 PUSH1 0xE5 SHL DUP2 MSTORE PUSH1 0x4 ADD PUSH1 0x40 MLOAD DUP1 SWAP2 SUB SWAP1 REVERT JUMPDEST PUSH1 0x0 DUP3 DUP2 MSTORE PUSH1 0x20 DUP2 SWAP1 MSTORE PUSH1 0x40 SWAP1 KECCAK256 SLOAD PUSH1 0x1 PUSH1 0xA0 SHL SWAP1 DIV PUSH8 0xFFFFFFFFFFFFFFFF AND ISZERO PUSH2 0x2CC JUMPI PUSH1 0x40 MLOAD PUSH4 0xB8CDB9BD PUSH1 0xE0 SHL DUP2 MSTORE PUSH1 0x4 ADD PUSH1 0x40 MLOAD DUP1 SWAP2 SUB SWAP1 REVERT JUMPDEST PUSH1 0x40 DUP1 MLOAD PUSH1 0x60 DUP2 ADD DUP3 MSTORE CALLER DUP1 DUP3 MSTORE PUSH8 0xFFFFFFFFFFFFFFFF TIMESTAMP DUP2 DUP2 AND PUSH1 0x20 DUP1 DUP7 ADD DUP3 DUP2 MSTORE DUP7 DUP9 ADD DUP10 DUP2 MSTORE PUSH1 0x0 DUP12 DUP2 MSTORE DUP1 DUP5 MSTORE DUP10 DUP2 KECCAK256 SWAP9 MLOAD DUP10 SLOAD SWAP4 MLOAD SWAP1 SWAP8 AND PUSH1 0x1 PUSH1 0xA0 SHL MUL PUSH1 0x1 PUSH1 0x1 PUSH1 0xE0 SHL SUB NOT SWAP1 SWAP4 AND PUSH1 0x1 PUSH1 0x1 PUSH1 0xA0 SHL SUB SWAP1 SWAP8 AND SWAP7 SWAP1 SWAP7 OR SWAP2 SWAP1 SWAP2 OR DUP8 SSTORE MLOAD PUSH1 0x1 SWAP7 DUP8 ADD SSTORE DUP5 DUP5 MSTORE DUP6 DUP2 MSTORE SWAP3 DUP7 SWAP1 KECCAK256 DUP1 SLOAD SWAP1 SWAP6 ADD SWAP1 SWAP5 SSTORE DUP5 MLOAD SWAP4 DUP5 MSTORE SWAP1 DUP4 ADD DUP6 SWAP1 MSTORE SWAP3 SWAP1 SWAP2 DUP6 SWAP2 PUSH32 0x5209FDEC76706DA480567430DCFE92D145394C370C55D1D6AFFBEF8D83440963 SWAP2 ADD PUSH1 0x40 MLOAD DUP1 SWAP2 SUB SWAP1 LOG3 POP POP POP JUMP JUMPDEST PUSH1 0x0 PUSH1 0x20 DUP3 DUP5 SUB SLT ISZERO PUSH2 0x39B JUMPI PUSH1 0x0 DUP1 REVERT JUMPDEST POP CALLDATALOAD SWAP2 SWAP1 POP JUMP JUMPDEST PUSH1 0x0 PUSH1 0x20 DUP3 DUP5 SUB SLT ISZERO PUSH2 0x3B4 JUMPI PUSH1 0x0 DUP1 REVERT JUMPDEST DUP2 CALLDATALOAD PUSH1 0x1 PUSH1 0x1 PUSH1 0xA0 SHL SUB DUP2 AND DUP2 EQ PUSH2 0x3CB JUMPI PUSH1 0x0 DUP1 REVERT JUMPDEST SWAP4 SWAP3 POP POP POP JUMP JUMPDEST PUSH1 0x0 DUP1 PUSH1 0x40 DUP4 DUP6 SUB SLT ISZERO PUSH2 0x3E5 JUMPI PUSH1 0x0 DUP1 REVERT JUMPDEST POP POP DUP1 CALLDATALOAD SWAP3 PUSH1 0x20 SWAP1 SWAP2 ADD CALLDATALOAD SWAP2 POP JUMP INVALID LOG2 PUSH5 0x6970667358 0x22 SLT KECCAK256 0xE PUSH31 0x15015019BFF73068BB544F1297E36E91D9B8EB3AA6F6ACE5CB8298986DFF64 PUSH20 0x6F6C634300081400330000000000000000000000 "},"methodIdentifiers":{"createProof(bytes32,bytes32)":"bfa8ad36","creatorProofCount(address)":"bc26ecfe","getBasicProof(bytes32)":"21c2bcac","getProof(bytes32)":"1b80bb3a","proofExists(bytes32)":"d938d202"}}}}}